{
  "contractName": "Bank",
  "abi": [
    {
      "constant": false,
      "inputs": [
        {
          "name": "id",
          "type": "uint32"
        },
        {
          "name": "_buy_price",
          "type": "uint16"
        },
        {
          "name": "_rent_price",
          "type": "uint16"
        },
        {
          "name": "BankAddress",
          "type": "address"
        }
      ],
      "name": "createProperty",
      "outputs": [
        {
          "name": "",
          "type": "address"
        }
      ],
      "payable": false,
      "stateMutability": "nonpayable",
      "type": "function",
      "signature": "0x08ca1598"
    },
    {
      "constant": true,
      "inputs": [],
      "name": "BankAddress",
      "outputs": [
        {
          "name": "",
          "type": "address"
        }
      ],
      "payable": false,
      "stateMutability": "view",
      "type": "function",
      "signature": "0x183d6322"
    },
    {
      "constant": false,
      "inputs": [
        {
          "name": "newowner",
          "type": "address"
        },
        {
          "name": "index",
          "type": "uint32"
        }
      ],
      "name": "TransferProperty",
      "outputs": [],
      "payable": false,
      "stateMutability": "nonpayable",
      "type": "function",
      "signature": "0x314a22a2"
    },
    {
      "constant": true,
      "inputs": [
        {
          "name": "",
          "type": "uint32"
        }
      ],
      "name": "propertyToPlayer",
      "outputs": [
        {
          "name": "",
          "type": "address"
        }
      ],
      "payable": false,
      "stateMutability": "view",
      "type": "function",
      "signature": "0x47d64f05"
    },
    {
      "constant": true,
      "inputs": [
        {
          "name": "index",
          "type": "uint32"
        }
      ],
      "name": "getPropertyOwner",
      "outputs": [
        {
          "name": "",
          "type": "address"
        }
      ],
      "payable": false,
      "stateMutability": "view",
      "type": "function",
      "signature": "0x64f8dd63"
    },
    {
      "constant": true,
      "inputs": [
        {
          "name": "_a",
          "type": "uint256"
        }
      ],
      "name": "convert",
      "outputs": [
        {
          "name": "",
          "type": "uint32"
        }
      ],
      "payable": false,
      "stateMutability": "pure",
      "type": "function",
      "signature": "0xa3908e1b"
    },
    {
      "constant": true,
      "inputs": [],
      "name": "balance",
      "outputs": [
        {
          "name": "",
          "type": "uint256"
        }
      ],
      "payable": false,
      "stateMutability": "view",
      "type": "function",
      "signature": "0xb69ef8a8"
    },
    {
      "constant": true,
      "inputs": [],
      "name": "BankOwner",
      "outputs": [
        {
          "name": "",
          "type": "address"
        }
      ],
      "payable": false,
      "stateMutability": "view",
      "type": "function",
      "signature": "0xdb7f6a38"
    },
    {
      "constant": true,
      "inputs": [
        {
          "name": "",
          "type": "address"
        }
      ],
      "name": "players",
      "outputs": [
        {
          "name": "",
          "type": "uint256"
        }
      ],
      "payable": false,
      "stateMutability": "view",
      "type": "function",
      "signature": "0xe2eb41ff"
    },
    {
      "inputs": [],
      "payable": false,
      "stateMutability": "nonpayable",
      "type": "constructor",
      "signature": "constructor"
    },
    {
      "payable": true,
      "stateMutability": "payable",
      "type": "fallback"
    },
    {
      "constant": true,
      "inputs": [],
      "name": "getBankAdd",
      "outputs": [
        {
          "name": "",
          "type": "address"
        }
      ],
      "payable": false,
      "stateMutability": "view",
      "type": "function",
      "signature": "0x3ff981c0"
    },
    {
      "constant": true,
      "inputs": [],
      "name": "getaddress",
      "outputs": [
        {
          "name": "",
          "type": "address"
        }
      ],
      "payable": false,
      "stateMutability": "view",
      "type": "function",
      "signature": "0x252bd4d3"
    },
    {
      "constant": false,
      "inputs": [
        {
          "name": "_propertyId",
          "type": "uint32"
        }
      ],
      "name": "BankToPlayerProperty",
      "outputs": [],
      "payable": true,
      "stateMutability": "payable",
      "type": "function",
      "signature": "0xe79e6cfc"
    },
    {
      "constant": false,
      "inputs": [
        {
          "name": "player",
          "type": "address"
        },
        {
          "name": "value",
          "type": "uint32"
        }
      ],
      "name": "BankToPlayerEther",
      "outputs": [],
      "payable": true,
      "stateMutability": "payable",
      "type": "function",
      "signature": "0xe9c677db"
    }
  ],
  "bytecode": "0x608060405230600360006101000a81548173ffffffffffffffffffffffffffffffffffffffff021916908373ffffffffffffffffffffffffffffffffffffffff160217905550600060055534801561005657600080fd5b5033600460006101000a81548173ffffffffffffffffffffffffffffffffffffffff021916908373ffffffffffffffffffffffffffffffffffffffff160217905550610b91806100a76000396000f3fe6080604052600436106100c5576000357c0100000000000000000000000000000000000000000000000000000000900463ffffffff16806308ca1598146100d7578063183d632214610194578063252bd4d3146101eb578063314a22a2146102425780633ff981c0146102a357806347d64f05146102fa57806364f8dd631461037b578063a3908e1b146103fc578063b69ef8a814610457578063db7f6a3814610482578063e2eb41ff146104d9578063e79e6cfc1461053e578063e9c677db14610572575b34600560008282540192505081905550005b3480156100e357600080fd5b50610152600480360360808110156100fa57600080fd5b81019080803563ffffffff169060200190929190803561ffff169060200190929190803561ffff169060200190929190803573ffffffffffffffffffffffffffffffffffffffff1690602001909291905050506105c6565b604051808273ffffffffffffffffffffffffffffffffffffffff1673ffffffffffffffffffffffffffffffffffffffff16815260200191505060405180910390f35b3480156101a057600080fd5b506101a9610753565b604051808273ffffffffffffffffffffffffffffffffffffffff1673ffffffffffffffffffffffffffffffffffffffff16815260200191505060405180910390f35b3480156101f757600080fd5b50610200610779565b604051808273ffffffffffffffffffffffffffffffffffffffff1673ffffffffffffffffffffffffffffffffffffffff16815260200191505060405180910390f35b34801561024e57600080fd5b506102a16004803603604081101561026557600080fd5b81019080803573ffffffffffffffffffffffffffffffffffffffff169060200190929190803563ffffffff169060200190929190505050610781565b005b3480156102af57600080fd5b506102b86107e3565b604051808273ffffffffffffffffffffffffffffffffffffffff1673ffffffffffffffffffffffffffffffffffffffff16815260200191505060405180910390f35b34801561030657600080fd5b506103396004803603602081101561031d57600080fd5b81019080803563ffffffff16906020019092919050505061080d565b604051808273ffffffffffffffffffffffffffffffffffffffff1673ffffffffffffffffffffffffffffffffffffffff16815260200191505060405180910390f35b34801561038757600080fd5b506103ba6004803603602081101561039e57600080fd5b81019080803563ffffffff169060200190929190505050610840565b604051808273ffffffffffffffffffffffffffffffffffffffff1673ffffffffffffffffffffffffffffffffffffffff16815260200191505060405180910390f35b34801561040857600080fd5b506104356004803603602081101561041f57600080fd5b8101908080359060200190929190505050610889565b604051808263ffffffff1663ffffffff16815260200191505060405180910390f35b34801561046357600080fd5b5061046c610893565b6040518082815260200191505060405180910390f35b34801561048e57600080fd5b50610497610899565b604051808273ffffffffffffffffffffffffffffffffffffffff1673ffffffffffffffffffffffffffffffffffffffff16815260200191505060405180910390f35b3480156104e557600080fd5b50610528600480360360208110156104fc57600080fd5b81019080803573ffffffffffffffffffffffffffffffffffffffff1690602001909291905050506108bf565b6040518082815260200191505060405180910390f35b6105706004803603602081101561055457600080fd5b81019080803563ffffffff1690602001909291905050506108d7565b005b6105c46004803603604081101561058857600080fd5b81019080803573ffffffffffffffffffffffffffffffffffffffff169060200190929190803563ffffffff169060200190929190505050610a3e565b005b600081600160008763ffffffff1663ffffffff16815260200190815260200160002060006101000a81548173ffffffffffffffffffffffffffffffffffffffff021916908373ffffffffffffffffffffffffffffffffffffffff16021790555061062e610b35565b85816000019063ffffffff16908163ffffffff168152505084816020019061ffff16908161ffff168152505083816040019061ffff16908161ffff168152505060028190806001815401808255809150509060018203906000526020600020016000909192909190915060008201518160000160006101000a81548163ffffffff021916908363ffffffff16021790555060208201518160000160046101000a81548161ffff021916908361ffff16021790555060408201518160000160066101000a81548161ffff021916908361ffff160217905550505050600160008763ffffffff1663ffffffff16815260200190815260200160002060009054906101000a900473ffffffffffffffffffffffffffffffffffffffff16915050949350505050565b600360009054906101000a900473ffffffffffffffffffffffffffffffffffffffff1681565b600030905090565b81600160008363ffffffff1663ffffffff16815260200190815260200160002060006101000a81548173ffffffffffffffffffffffffffffffffffffffff021916908373ffffffffffffffffffffffffffffffffffffffff1602179055505050565b6000600460009054906101000a900473ffffffffffffffffffffffffffffffffffffffff16905090565b60016020528060005260406000206000915054906101000a900473ffffffffffffffffffffffffffffffffffffffff1681565b6000600160008363ffffffff1663ffffffff16815260200190815260200160002060009054906101000a900473ffffffffffffffffffffffffffffffffffffffff169050919050565b6000819050919050565b60055481565b600460009054906101000a900473ffffffffffffffffffffffffffffffffffffffff1681565b60066020528060005260406000206000915090505481565b600080600090505b601c8163ffffffff161015610945578263ffffffff1660028263ffffffff1681548110151561090a57fe5b9060005260206000200160000160009054906101000a900463ffffffff1663ffffffff161415610938578091505b80806001019150506108df565b5060028163ffffffff1681548110151561095b57fe5b9060005260206000200160000160049054906101000a900461ffff1661ffff1634101515156109f2576040517f08c379a00000000000000000000000000000000000000000000000000000000081526004018080602001828103825260108152602001807f4e6f7420656e6f756768206d6f6e65790000000000000000000000000000000081525060200191505060405180910390fd5b60028163ffffffff16815481101515610a0757fe5b9060005260206000200160000160049054906101000a900461ffff1661ffff1634101515610a3a57610a393382610781565b5b5050565b8063ffffffff16600554111515610abd576040517f08c379a000000000000000000000000000000000000000000000000000000000815260040180806020018281038252600d8152602001807f42616e6b2069732042726f6b650000000000000000000000000000000000000081525060200191505060405180910390fd5b8063ffffffff166005541115610b31578173ffffffffffffffffffffffffffffffffffffffff166108fc8263ffffffff169081150290604051600060405180830381858888f19350505050158015610b19573d6000803e3d6000fd5b508063ffffffff166005600082825403925050819055505b5050565b606060405190810160405280600063ffffffff168152602001600061ffff168152602001600061ffff168152509056fea165627a7a72305820953325c6b2605798b1ab22f38ec2a9a2262c7c8279301eff2d85ed7870a648650029",
  "source": "pragma solidity ^0.5.0;\r\n\r\n//import \"../node_modules/openzeppelin-solidity/contracts/token/ERC721/ERC721Full.sol\";\r\n//import \"../node_modules/openzeppelin-solidity/contracts/token/ERC721/ERC721Mintable.sol\";\r\n\r\n//\r\n// YOU HAVE TO CHANGE OPENZEPPELIN PACKAGE SOL FILES VERSION. #DONE\r\n// PUT ALL PROPERTIES IN THE ARRAY. #DONE\r\n// FINALIZE TRANSFER, SEND MONEY(GAS).\r\n// // (1) bank to user (money) ok\r\n// // (2) user to user (money) ok\r\n// // (3) user to bank (money) ok\r\n// // (4) user from bank (property) oK\r\ncontract Property{\r\n    // Here I declare the Properties contract which holds the properties of the game as a digital asset.\r\n    Bank private instbank;\r\n    constructor() public payable {\r\n    }\r\n    struct Propertybubble {\r\n        uint32 id;\r\n        uint16 buy_price;\r\n        uint16 rent_price;\r\n    }\r\n    mapping (uint32 => address) public propertyToPlayer;\r\n    Propertybubble[] properties;\r\n    function convert (uint256 _a) public pure returns (uint32) {\r\n        return uint32(_a);\r\n    }\r\n    function createProperty(\r\n        uint32 id,\r\n        uint16 _buy_price,\r\n        uint16 _rent_price,\r\n        address BankAddress\r\n    ) external returns(address){\r\n        propertyToPlayer[id] = BankAddress;\r\n        Propertybubble memory property;\r\n        property.id = id;\r\n        property.buy_price = _buy_price;\r\n        property.rent_price = _rent_price;\r\n        properties.push(property);\r\n        \r\n        return propertyToPlayer[id];\r\n    }\r\n    function TransferProperty(address newowner, uint32 index) public{\r\n        //require(msg.sender == propertyToPlayer[index]);\r\n        propertyToPlayer[index] = newowner;\r\n        \r\n    }\r\n    function getPropertyOwner(uint32 index) public view returns(address) {\r\n        return propertyToPlayer[index];\r\n    }\r\n}\r\n\r\ncontract Bank is Property {\r\n    // Here the \"Bank\" contract is defined.\r\n    address payable public BankAddress = address(this);\r\n    address payable public BankOwner;\r\n    uint256 public balance = 0;\r\n    mapping (address => uint256) public players;\r\n\r\n    constructor () public\r\n    {\r\n        BankOwner = msg.sender;\r\n    }\r\n    function() external payable {\r\n        balance += msg.value;\r\n    }\r\n    function getBankAdd() public view returns(address) {\r\n        return BankOwner;\r\n    }\r\n    function getaddress() external view returns(address){\r\n        return address(this);\r\n    }\r\n    function BankToPlayerProperty(uint32 _propertyId) public payable {\r\n        uint32 id2;\r\n        for ( uint32 i=0 ; i<28 ; i++ ) {\r\n            if(properties[i].id == _propertyId)\r\n                id2 = i;\r\n        }\r\n        require(msg.value >= properties[id2].buy_price,  \"Not enough money\");\r\n\r\n        if (msg.value >= properties[id2].buy_price) {\r\n            TransferProperty(msg.sender, id2);\r\n        }\r\n    }\r\n    function BankToPlayerEther(address payable player, uint32 value) public payable {\r\n        require(balance > value, \"Bank is Broke\");\r\n\r\n        if(balance > value)\r\n        {\r\n            player.transfer(value);\r\n            balance -= value;\r\n        }\r\n    }\r\n\r\n}\r\n",
  "sourcePath": "E:/College/Semester 7/Grad Project/MonobolyGameWithEthereum/Backend/contracts/Monopoly.sol",
  "compiler": {
    "name": "solc",
    "version": "0.5.0+commit.1d4f565a.Emscripten.clang"
  },
  "schemaVersion": "3.0.3",
  "updatedAt": "2019-06-16T13:47:10.816Z",
  "devdoc": {
    "methods": {}
  },
  "userdoc": {
    "methods": {}
  }
}